:020000040800F2
:10000000E804002001010008471600082B1500082D
:1000100045160008AD0300089D1800080000000008
:100020000000000000000000000000004B16000867
:10003000E104000800000000491600084D16000801
:100040001B0100081B0100081B0100081B01000820
:100050001B0100081B0100081B0100081B01000810
:100060001B0100081B0100081B0100081B01000800
:100070001B0100081B0100081B0100081B010008F0
:100080001B0100081B0100081B0100081B010008E0
:100090001B0100081B0100081B0100081B010008D0
:1000A0001B0100081B0100081B0100081B010008C0
:1000B0001B0100081B0100081B0100081B010008B0
:1000C0001B0100081B0100081B0100081B010008A0
:1000D0001B0100081B0100081B0100081B01000890
:1000E0001B0100081B0100081B010008DFF80CD0F1
:1000F00000F0CEF800480047551C0008E804002036
:100100000648804706480047FEE7FEE7FEE7FEE7B1
:10011000FEE7FEE7FEE7FEE7FEE7FEE7A5160008BE
:10012000ED000008D2B201E000F8012B491EFBD21D
:1001300070470022F6E710B513460A4604461946F2
:10014000FFF7F0FF204610BD30B480EA010202F054
:10015000004530F0004221F0004013D090B1C30DB3
:10016000D40DC2F31601C0F31600E41A41F40001E5
:1001700040F400027D34914201D3641C00E0490048
:10018000002C02DA30BC002070474FF4000000233E
:10019000914201D3891A034340084FEA4101F7D144
:1001A00051B1914202D14FF0004105E002D24FF02F
:1001B000010101E06FF0010103EBC450284430BCA1
:1001C00000F02FB896230022114600F033B820F03B
:1001D0000040C10DC0F3160040F400007F2901DA91
:1001E00000207047962903DCC1F19601C840704792
:1001F00096398840704730B50B46014600202022D2
:10020000012409E021FA02F59D4205D303FA02F523
:10021000491B04FA02F52844151EA2F10102F1DC83
:1002200030BD0029A8BF7047401C490008BF20F01E
:100230000100704710B4B0FA80FC00FA0CF050EAEC
:10024000010404BF10BC704749B1CCF1200421FA6D
:1002500004F411FA0CF118BF012121430843A3EB68
:100260000C01CB1D4FEA00614FEA102042BF002075
:1002700010BC704700EBC35010440029A4BF10BC51
:100280007047401C490008BF20F0010010BC7047B7
:10029000064C074D06E0E06840F0010394E80700D3
:1002A00098471034AC42F6D3FFF724FFD01D000866
:1002B000F01D000810B5074800F050FA054800F09E
:1002C0008FF90446034800F0A9FA142000F0C0FAA0
:1002D000204610BD2800002070B5044600688168E3
:1002E000C943C90717D1816821F00101816000F07D
:1002F000BBFB05460AE000BF00F0B6FB401B02282E
:1003000004D920688068C043C00706D02068806890
:10031000C043C007F0D0002070BDA06A40F01000BC
:10032000A062E06A40F00100E062012070BD0000C0
:10033000F8B500260446009600688168C943C907DD
:100340002DD0816841F0010181601648164900688E
:10035000B0FBF1F000E0401E00900028FBD100F05F
:1003600083FB054616E000BF00F07EFB401B022821
:1003700010D920688068C043C0070BD0A06A40F045
:100380001000A062E06A40F00100E06284F824609E
:100390000120F8BD20688068C043C007E4D1002078
:1003A000F8BD00002400002040420F00FEE70000DE
:1003B0002DE9F0411F4F204C00254FF0010800BFF0
:1003C00000F052FBC4F8100000F04EFB6061022107
:1003D000384600F03FFB20B9D4E90401801C884274
:1003E000F2D8282001F0DCFC0221384600F032FB74
:1003F0000028C5F1070108FA01F019D03043C6B250
:1004000000F032FBC4F8100000F02EFB6061022106
:10041000384600F01FFB20B1D4E90401801C88425B
:10042000F2D86D1CEDB2082DCAD33046BDE8F0817C
:100430008643E5E700080140000000202DE9FF4168
:10044000022000250127CDE90007CDE90250224E08
:100450002C466946304600F00DFA00220221304653
:1004600000F0FDFA4FF4966001F09AFC012202219F
:10047000304600F0F4FA142001F092FCCDE9014777
:100480006946304600F0F6F9282001F089FC022187
:10049000304600F0DFFA40B9502001F081FC022123
:1004A000304600F0D7FA00B1012500F0DDFA0B4C20
:1004B000C4F8100000F0D8FA60610221304600F064
:1004C000C9FA20B1D4E90401801C8842F2D804B0F2
:1004D0002846BDE8F081000000080140000000202F
:1004E00070470000F8B50024009490F824202546B9
:1004F000012A12D0012280F824204A681F23072AEB
:100500000DD20668776B521E02EB820293409F4326
:100510000B6893401F43776319E00220F8BD06681B
:100520000D2A0AD2376BD21F02EB820293409F43FF
:100530000B6893401F43376309E0F76A0D3A02EBFB
:10054000820293409F430B6893401F43F7620A68FF
:10055000072306680A2A0AD3F7680A3A02EB42021E
:1005600093409F438B6893401F43F76008E03769CF
:1005700002EB420293409F438B6893401F433761D5
:100580000A68102A01D0112A20D1124B02689A421F
:1005900017D193681B0219D4936843F40003936046
:1005A0000968102912D10C490C4A0968B1FBF2F113
:1005B00001EB8101490000E0491E00910029FBD1B7
:1005C00004E0816A41F020018162012480F8245016
:1005D0002046F8BD002401402400002040420F00C6
:1005E0000068C06C704700002DE9F0414FF0000733
:1005F00004003D467ED0A06A002628B9E66284F851
:100600002460204600F07EF82046FFF765FEA16AD0
:1006100001F01001014304D0A06A40F01000A06274
:1006200068E0A16A21F4885141F00201A162626888
:10063000E169237B0A4347EA43010A43A1684FF477
:100640008077B94208D0012906D0002194F814C05F
:10065000BCF1010F02D00AE03946F7E7F3B1A36A13
:1006600043F02003A362E36A43F00103E3622368DB
:10067000D3F804C02CF4694C4CEA010CC3F804C054
:1006800023689968DFF870C001EA0C011143996092
:10069000A168B9420BD0012909D00CE0DFF85CC099
:1006A000A3690CEB43330B4343F40061DFE7218A7A
:1006B0000D05A5F580152168CB6A23F470032B4343
:1006C000CB62216889680E4B1940914208D1E662DD
:1006D000A16A21F0020141F00101A162BDE8F081AF
:1006E000A06A20F0020040F01000A062E06A40F032
:1006F0000100E0620120F1E7FDF7E1FF00E0FFFF0C
:10070000FE0E1FFF00B585B00021009101910291FE
:10071000039100680E49884218D10E48816941F45E
:1007200000718161816901F400710491816941F076
:10073000040181618069694600F004000490012091
:10074000009003200190044800F094F805B000BD2B
:1007500000240140001002400008014070B504462A
:1007600090F8240001280DD0012084F824002046B0
:10077000FFF7DEFD02004FF0000005D084F82400F2
:10078000104670BD022070BDA16A40F2012399435A
:1007900041F48071A1621F4D23681F49AB4218D1FB
:1007A0000E6816F4702F14D0A66A46F48016A6625E
:1007B0000E68760505D5A66A26F4005646F48056DE
:1007C000A662A66AF6040AD5E66A26F00606E6627E
:1007D00006E0A66A26F48016A6625E68E9E7E06293
:1007E00084F824006FF00200186020688368C3F367
:1007F0004243072B05D1A84208D1096811F4702F94
:1008000004D0816841F480118160B9E7816841F4C6
:10081000A001F9E7002801400424014010B5044676
:1008200090F82400012807D0012084F824002046F5
:10083000FFF752FD10B107E0022010BDA16A21F4BC
:10084000885141F00101A162002184F8241010BDFB
:1008500070B5044600F008F90546601C02D0044853
:100860000078044400F000F9401BA042FAD370BDA8
:10087000180000202DE9F84FDFF8B891002409F1A5
:10088000040A0AF1040B23460F270BF1040EC9E0FA
:100890000125A5402A40AA427DD1674ED1F804C067
:1008A000ACEB0608B44532D014DCBCF1030F3AD0EF
:1008B00009DCBCF1000F2AD0BCF1010F1CD0BCF147
:1008C000020F31D11DE0BCF1110F17D0BCF1120F96
:1008D0002AD119E0B8F5881F19D006DCB8F5803F99
:1008E00015D0B8F5801F1FD111E0B8F5001F0ED04C
:1008F000B8F5041F18D10AE0CB6815E0CB681B1DC2
:1009000012E0CB6808330FE0CB680C330CE08B6847
:100910002BB1012B4FF0080303D0456104E0042301
:1009200002E0056100E00023FF2A01D8064601E04D
:1009300000F104064FEA840501D9A5F12005D6F897
:10094000008007FA05FC28EA0C0803FA05F548EAD6
:100950000508C6F800804D68ED0062D5374DAE69D8
:1009600046F00106AE61AD6924F0030605F001050D
:100970000095334D06EB050CDCF80850A607360F42
:1009800007FA06F825EA0805DFF8B880404503D1E4
:100990004FF0000817E044E0DFF8AC80404502D19A
:1009A0004FF001080FE0DFF8A480404502D14FF07E
:1009B000020808E0DFF89880404502D14FF00308B4
:1009C00001E04FF0040808FA06F848EA0508CCF8F8
:1009D00008804D68D9F80060ED034D4601D51643F7
:1009E00000E096432E604D68DAF80060AD0355468E
:1009F00001D5164300E096432E604D68DBF8006099
:100A0000ED025D4601D5164300E096432E604D6829
:100A1000DEF80060AD02754601D5164300E096434E
:100A20002E60641C0D682A46E5407FF431AFBDE8B6
:100A3000F88F000000040140000011100010024077
:100A40000000014000080140000C0140001001407E
:100A5000001401408068084000D0012070470AB1AE
:100A6000016170470904FBE7014880687047000096
:100A700018000020024881680278114481607047A4
:100A800018000020074810B5016841F0100101600E
:100A9000032000F067F8002000F006F800F024F8CA
:100AA000002010BD0020024070B50D4D04464FF4EB
:100AB0007A712878B1FBF0F00A490968B1FBF0F0CF
:100AC00000F054FB48B9102C07D200222146501EDA
:100AD00000F028F800206C6070BD012070BD00009F
:100AE00018000020240000200C4808B5816941F05E
:100AF00001018161816901F001010091C16941F049
:100B00008051C161C06900F0805000900448416884
:100B100021F0E06141F00071416008BD0010024029
:100B200000000140F0B40E4B1B680C46C3F30223D7
:100B3000C3F10705042D00D90425191D072901D289
:100B4000002300E0DB1E012606FA05F1491E2140C4
:100B500099409E40761E16403143F0BC00F0B4BE72
:100B60000CED00E0064900F0070208684FF6FF03AD
:100B7000184040EA0220034A104308607047000012
:100B80000CED00E00000FA052DE9F8430546007879
:100B9000354CC00754D0E0690026C00008D4E06995
:100BA00040F08050E061E069012600F08050009044
:100BB0002E480168C90512D40168804641F480714D
:100BC0000160FFF751FF074605E000BFFFF74CFF4C
:100BD000C01B642823D8D8F80000C005F6D5206AC9
:100BE00010F4407021D0A98801F4407181421CD0DA
:100BF000206A1F49012220F440700A6000220A6026
:100C00002062C00711D0FFF72FFF074641F2883856
:100C100008E000BFFFF728FFC11B414502D90320B0
:100C2000BDE8F883206A8007F4D5206A696820F45B
:100C30004070084320621EB1E06920F08050E061FE
:100C40002878800705D56068A96820F440400843EB
:100C500060602878C00605D56068E96820F48000E7
:100C6000084360600020DBE7001002400070004095
:100C7000400442422DE9F0470F46050061D0434E43
:100C8000306800F00700B84209D2306820F0070051
:100C900038433060306800F00700B84251D128680E
:100CA0003B4C810712D5400703D5606840F4E060F3
:100CB00060602878000703D5606840F46050606089
:100CC0006068A96820F0F000084360602878C007D9
:100CD00028D06868012810D02168022810D0890720
:100CE00000292EDA616821F0030101436160FFF7FA
:100CF000BBFE804641F288390DE021688903EFE7A9
:100D00008901EDE7FFF7B0FEA0EB0801494502D9E4
:100D10000320BDE8F0876068696800F00C00B0EB64
:100D2000810FEFD1306800F00700B8420BD930686E
:100D300020F0070038433060306800F00700B84208
:100D400001D00120E5E72878400705D56068E9680B
:100D500020F4E060084360602878000706D56068EA
:100D6000296920F4605040EAC100606000F038F862
:100D70006168084AC1F30311515CC8400649086024
:100D800006480068FFF790FE0020C2E700200240FE
:100D900000100240B81D0008240000201C000020A4
:100DA0000448054900684968044AC1F30221515CBE
:100DB000C84070472400002000100240C81D0008F1
:100DC0000448054900684968044AC1F3C221515CDE
:100DD000C84070472400002000100240C81D0008D1
:100DE00012A185B00FC98DE80F0014A0144A006845
:100DF00004905168134801F00C03042B10D0082B09
:100E00000ED1C1F38343C9031DF803000AD551680D
:100E100004AAC1F34041515C0A4A5043B0FBF1F0CF
:100E200005B0704708494843FAE70000020304058B
:100E3000060708090A0B0C0D0E0F10100102000026
:100E40000010024000127A0000093D002DE9F84F21
:100E5000040070D02078C04DC00749D06868C0F346
:100E60008100012807D06868C0F38100022809D1F9
:100E70006868C00306D52868800339D560680028F3
:100E8000E7D035E06068B0F5803F0BD010B1B0F529
:100E9000A02F11D0286820F480302860286820F422
:100EA000802002E0286840F480302860606890B1BB
:100EB000FFF7DAFD06460AE0286840F48020286043
:100EC000F0E700BFFFF7D0FD801B642873D82868C7
:100ED0008003F7D50CE0FFF7C7FD064605E000BF2D
:100EE000FFF7C2FD801B6428F0D828688003F7D480
:100EF00020789A4E80074FF001094FF0000839D54D
:100F0000686810F00C0F07D06868C0F381000228F1
:100F100009D16868C00306D42868800714D5206901
:100F2000012808D110E02069B0B1C6F80090FFF7A1
:100F30009BFD074605E00AE1FFF796FDC01B02286E
:100F4000C4D828688007F7D52868616920F0F800C0
:100F500040EAC10028600DE0C6F80080FFF784FD7C
:100F6000074604E0FFF780FDC01B022823D828684D
:100F70008007F7D4207800072CD57948A169D9B12A
:100F8000C0F80090FFF770FD074604E0FFF76CFD26
:100F9000C01B02280FD8686A8007F7D571484FF444
:100FA000FA510068B0FBF1F0009000BF0098411EBC
:100FB0000091FAD20EE080E0C0F80080FFF754FD07
:100FC000074604E0FFF750FDC01B022875D8686A89
:100FD0008007F7D42078400760D5E8690027C00073
:100FE00008D4E86940F08050E861E869012700F022
:100FF000805000905C480168C90513D4016883469D
:1010000041F480710160FFF72FFD824606E000BFCA
:10101000FFF72AFDA0EB0A0064284ED8DBF8000099
:10102000C005F5D5E06801280AD008B1052813D01D
:10103000286A20F001002862286A20F0040002E0FB
:10104000286A40F001002862E06841F2883B98B1CC
:10105000FFF70AFD82460BE0286A40F00400286290
:10106000EEE700BFFFF700FDA0EB0A0159455AD893
:10107000286A8007F6D50CE0FFF7F6FC824605E00B
:10108000FFF7F2FCA0EB0A0159454CD8286A80070B
:10109000F6D41FB1E86920F08050E861E06988B3B8
:1010A0006968C1F38101022944D00228C6F8608032
:1010B00004D0FFF7D9FC044638E034E0FFF7D4FC55
:1010C000074604E0FFF7D0FCC01B02282BD8286895
:1010D0008001F7D4206AB0F5803F05D16868A16827
:1010E00020F4003008436860D4E9080108436968C7
:1010F00021F4741108436860C6F86090FFF7B4FCEF
:10110000044606E025E000BFFFF7AEFC001B022806
:1011100009D828688001F7D51BE000BFFFF7A4FCC1
:10112000001B022802D90320BDE8F88F286880013F
:10113000F4D40EE00128F7D06868226A00F4803108
:10114000914204D1616A00F47010884201D00120FC
:10115000EAE70020E8E700000010024000004242F9
:1011600080044242240000200070004010B5401E60
:10117000B0F1807F01D3012010BD4FF0E024606109
:101180000F21601700F0A0FB0020A0610720206164
:10119000002010BD70B590F83C20012A26D0012413
:1011A00080F83C40022280F83D2003685A689D6820
:1011B00022F070060A6832435A600D4B02689A4268
:1011C00008D0B2F1804F05D00A4B9A4202D00A4BA8
:1011D0009A4204D1496825F080031943916080F850
:1011E0003D40002180F83C10084670BD022070BDD3
:1011F000002C0140000400400008004010B504002D
:1012000003D094F83D0010B107E0012010BD00208C
:1012100084F83C00204600F01FF8022084F83D00CE
:10122000211D206800F040FA012084F8460084F86F
:101230003E0084F83F0084F8400084F8410084F8C0
:10124000420084F8430084F8440084F8450084F8A0
:101250003D00002010BD000008B500680649884226
:1012600008D10648816941F400618161806900F418
:101270000060009008BD0000002C014000100240FA
:1012800090F83D10012901D001207047022180F81B
:101290003D1000680B49884208D0B0F1804F05D05E
:1012A0000949884202D00949884204D1816801F085
:1012B0000701062903D0016841F001010160002007
:1012C00070470000002C014000040040000800406E
:1012D00070B5044690F83C00012817D0012584F829
:1012E0003C50022084F83D002068826822F077029A
:1012F00022F47F4282600868502830D00DDC20281C
:101300004DD005DC98B310283BD148E0022070BDD9
:10131000302844D0402834D139E0602828D07028C3
:1013200006D0B0F5805F2CD0B0F5005F29D10AE07F
:10133000CB68D1E90121206800F0ECF920688168D0
:1013400041F0770109E0CB68D1E90121206800F084
:10135000E1F92068816841F48041816011E0CA6848
:101360004968206800F0E8F95021206807E016E09D
:10137000CA684968206800F0F0F96021206800F030
:10138000D3F984F83D50002084F83C0070BDCA6851
:101390004968206800F0D0F940212068EFE7226812
:1013A00001461046EBE770B5040004D094F83D0008
:1013B000002510B106E0012070BD84F83C502046A5
:1013C00000F022F8242084F83D002068C16821F450
:1013D0000051C160204600F0D3F92068016921F472
:1013E000904101612068416921F02A014161206832
:1013F000C16841F40051C1602564202084F83D009B
:1014000084F83E00002070BD30B585B00024009403
:1014100001940294039400681449884224D114482A
:10142000816941F480418161816901F480410491C5
:10143000816941F00401816180690E4D00F0040072
:1014400004904FF40070009002200190032003905C
:1014500069462846FFF70EFA2815CDE900046946CB
:1014600028460294FFF706FA05B030BD0038014067
:1014700000100240000801402DE9F843044690F8AE
:101480003D001F4616460D4620284CD1C5B1BEB1C1
:1014900094F83C00012846D0012084F83C004FF02D
:1014A0000008C4F84080212084F83D00FFF7DCFAF2
:1014B000A6848146E684A068B0F5805F03D004E08E
:1014C0000120BDE8F883206928B12E465FF00005B1
:1014D00084F83C800EE00026FAE78021204600F0E8
:1014E000ABF9A0B9AEB116F8010B21684860E08CE9
:1014F000401EE084E08C4B464FF00002009700282D
:10150000EBD14FF04001204600F096F930B10320B6
:10151000D7E735F8020BC0F30800E6E7202084F88F
:101520003D000020CDE70220CBE7FEE73EB50024DA
:101530000D480094019402940A4984600160047388
:101540000475012505614FF460214460C161FFF716
:101550004BF8CDE90045694603480294FEF7C2FF07
:101560003EBD000000240140280000202DE9F0418C
:1015700086B000241B48009401940294039481696E
:1015800041F004018161816901F0040104918169E4
:1015900041F0080181618069134F00F00800049058
:1015A00000220A213846FFF75AFADFF8408000226D
:1015B00001214046FFF753FA0A2001250226CDE912
:1015C0000005CDE9024669463846FFF753F9039610
:1015D0000095CDE9015469464046FFF74BF906B046
:1015E000BDE8F0810010024000080140000C0140FD
:1015F00010B586B00024124800940194029403941C
:1016000004940E49059401600721C0E901144FF6C6
:10161000FF71C0E9031444618461FFF7EFFD4FF4EB
:101620008050009069460648FFF752FE049404A9D2
:1016300003480594FFF7AEFD06B010BD002C014035
:1016400058000020FEE7704770477047FFF712BA56
:1016500030B593B028216846FEF76BFD14210AA827
:10166000FEF767FD002401200F94022504900095E9
:101670001020119405901094129407946846FFF777
:10168000E5FB0F20CDE90A040C940D9400210AA873
:101690000E94FFF7EFFA0FA80F951194FFF774FA65
:1016A00013B030BD70470000F0B50268164B174C00
:1016B000174D4FF08047984205D0B84203D0A04262
:1016C00001D0A84203D122F070064A683243984202
:1016D00005D0B84203D0A04201D0A84203D122F4E1
:1016E0004074CA6822434C6922F08002224302609F
:1016F0008A68C2620A688262984201D109690163FC
:1017000001214161F0BD0000002C014000040040B7
:101710000008004010B5846842EA032224F47F44A4
:101720000A432243826010BD826822F070020A439D
:1017300042F007018160704710B5036A046A24F023
:1017400001040462846924F0F00444EA021423F0E2
:101750000A020A438461026210BD10B5036A23F0D5
:10176000100303628369046A23F4704343EA02327C
:1017700024F0A00343EA01118261016210BD000060
:1017800070B5044600680169E26821F440511143D4
:1017900001612169A0680843616908432168CA683A
:1017A00041F20C639A430243CA6020684169A2690E
:1017B00021F44071114341611E492068884202D1E1
:1017C000FFF7FEFA01E0FFF7EBFA00EBC00101EBD7
:1017D0000012606864218000B2FBF0F3B3FBF1F308
:1017E0006FF018067343B2FBF0F5B2FBF0F605EBB1
:1017F0008305322303EB0515B5FBF1F5B6FBF1F6D6
:1018000005F0F00505EB0615B2FBF0F6B2FBF0F0C3
:10181000B0FBF1F06FF01802504306EB800003EBD1
:101820000010B0FBF1F0216800F00F002844886040
:1018300070BD0000003801402DE9F0419846174680
:101840000E460446069D1DE0681C1BD02DB1FFF717
:101850000BF9A0EB0800A84214D92068C16821F454
:10186000D071C1602068416921F0010141612020EF
:1018700084F83D0084F83E00002084F83C000320FA
:10188000BDE8F0812068006836EA000004D000203E
:10189000B842D9D00020F3E70120F9E7FEE70000C5
:1018A0000FB4084B10B504A902AA039800F02CF855
:1018B000044602A9002000F0C8F9204610BC5DF8DB
:1018C00014FB00004B1C00080907090E002804DB6C
:1018D00000F1E02080F80014704700F00F0000F1E4
:1018E000E02080F8141D704702E008C8121F08C1EC
:1018F000002AFAD170477047002001E001C1121F91
:10190000002AFBD1704700002DE9FF4F8BB08846BD
:101910000546002606E025280BD0DDE90D1290478C
:101920006D1C761C28780028F5D10FB03046BDE834
:10193000F08F0024A146A2460122AE4900E00443F4
:1019400015F8013F203B02FA03F00842F7D128784E
:101950002A2810D06FF02F022878A0F13001092931
:1019600015D809EB890102EB410144F0020400EBB8
:1019700001096D1CF0E758F8041B5FEA010903D563
:1019800044F40054C9F1000944F002046D1C2878A5
:101990002E2817D115F8010F44F004042A280ED080
:1019A0006FF02F022878A0F1300109290AD80AEB3C
:1019B0008A0102EB410100EB010A6D1CF2E758F8C5
:1019C00004AB6D1C28786C280FD006DC4C2817D08F
:1019D00068280DD06A2814D104E0742810D07A2821
:1019E0000FD10DE044F400140AE044F4801401E047
:1019F00044F440146978814202D104F580146D1CCE
:101A00006D1C2878692865D006DC00288DD06328F5
:101A100027D0642806D15DE06E2808D073282AD02C
:101A2000752877D0DDE90D129047761CE0E0C4F30D
:101A30000250022809D003280DD0D8F8001004283D
:101A40000DD00E6008F10408D2E0D8F80010F217AB
:101A5000C1E90062F6E7D8F800100E80F2E70E70D8
:101A6000F0E718F8041B8DF8001000208DF8010035
:101A7000EB46012003E058F804BB4FF0FF3061074C
:101A80004FF0000701D40AE07F1C57450DDA87426A
:101A9000FADB1BF807100029F6D106E07F1C87420D
:101AA000FCDB1BF807100029F8D1DDE90D23A9EBB9
:101AB00007008146214600F0B1F83044C61904E021
:101AC000DDE90D121BF8010B90477F1EF8D221466D
:101AD000484688E058F8040BC4F302514FF00A0B53
:101AE000032900D100B2042900D140B2002802DA53
:101AF00040422D2102E0210505D52B218DF824102F
:101B0000012104E006E0E10710D02021F6E708AF4C
:101B1000089113E058F8040BC4F302514FF00A0B7C
:101B2000032900D180B2042900D1C0B20021EEE720
:101B30005946FEF760FB303107F8011D0028F7D148
:101B4000ADEB070000F1200B600702D524F48034D0
:101B500001E04FF0010ADA4502DDAAEB0B0000E0DC
:101B60000020824600EB0B0108980144A9EB01001C
:101B70000A90E00306D4DDE90D2321460A9800F01F
:101B80004DF806444FF0000908E009A911F80900D2
:101B9000DDE90D12904709F10109761C0899894584
:101BA000F3DBE0030CD5DDE90D2321460A9800F0B4
:101BB00035F8064404E0DDE90D1230209047761C2C
:101BC000BAF10001AAF1010AF5DC05E0DDE90D1228
:101BD00017F8010B9047761CBBF10001ABF1010B2C
:101BE000F4DC0A982146DDE90D2300F005F80644EF
:101BF0006D1C97E6092801002DE9F04104460025F7
:101C00001E461746880404D405E039462020B04714
:101C10006D1C641EF9D52846BDE8F0812DE9F04120
:101C2000044600251E469046C80301D5302700E033
:101C30002027880404D505E041463846B0476D1C8E
:101C4000641EF9D52846BDE8F0810A68531C0B6074
:101C5000107070479AB0FEF715FFFFF7F9FCFFF719
:101C600085FCFFF763FC474845490C2201604FF4AF
:101C7000E131416000218160C160C0E904128161ED
:101C8000C161FFF790FBFFF7B3FC3E484838FFF710
:101C9000F7FADFF8F4904FF496763C4C40F6B937FB
:101CA000DFF8ECA04FF47A7BFEF7C8FBE8B3FEF751
:101CB0007FFB2070FEF77CFB6070FEF779FBA07065
:101CC000FEF776FBE070FEF773FB2071024620788A
:101CD00065788046A17828444318E0780344DBB255
:101CE0006371934221D17F2903D9FEF76BFA294909
:101CF00004E040EA0120FEF765FA4946FEF724FABF
:101D0000FEF765FAE08080B200EBC0000521B0FB71
:101D1000F1F02030208145EA0820FEF753FA4946C9
:101D2000FEF712FAFEF753FA608116487838FEF78C
:101D3000C1FAE060E28818A16846FFF7B1FD0546E8
:101D400015A10DA8E268FFF7ABFD82B233460DA9DD
:101D50000C48FFF791FBAAB2334669460948FFF7E2
:101D60008BFBE068B84201D8012200E0002201218B
:101D70005046FEF774FE5846FEF76AFD94E70000F1
:101D800000380140A0000020000020410000002099
:101D9000000C0140000020C1253034640000000028
:101DA000044900220B685A6209684A6A8242FCD3DD
:101DB00070470000580000200000000000000000F4
:101DC00001020304060708090000000001020304E1
:101DD000F01D00080000002028000000E81800089E
:101DE000181E000828000020C0040000F818000891
:101DF00000000000000000000000000000000000E3
:101E000000000000000000000100000010000000C1
:081E1000000000000024F400B2
:04000005080000ED02
:00000001FF
